{"abi":[{"type":"constructor","inputs":[{"name":"priceFeed","type":"address","internalType":"address"}],"stateMutability":"nonpayable"},{"type":"fallback","stateMutability":"payable"},{"type":"receive","stateMutability":"payable"},{"type":"function","name":"MINIMUM_USD","inputs":[],"outputs":[{"name":"","type":"uint256","internalType":"uint256"}],"stateMutability":"view"},{"type":"function","name":"fund","inputs":[],"outputs":[],"stateMutability":"payable"},{"type":"function","name":"getAddressToAmountFunded","inputs":[{"name":"fundingAddress","type":"address","internalType":"address"}],"outputs":[{"name":"","type":"uint256","internalType":"uint256"}],"stateMutability":"view"},{"type":"function","name":"getFunder","inputs":[{"name":"index","type":"uint256","internalType":"uint256"}],"outputs":[{"name":"","type":"address","internalType":"address"}],"stateMutability":"view"},{"type":"function","name":"getVersion","inputs":[],"outputs":[{"name":"","type":"uint256","internalType":"uint256"}],"stateMutability":"view"},{"type":"function","name":"i_owner","inputs":[],"outputs":[{"name":"","type":"address","internalType":"address"}],"stateMutability":"view"},{"type":"function","name":"withdraw","inputs":[],"outputs":[],"stateMutability":"nonpayable"},{"type":"error","name":"FundMe__NotOwner","inputs":[]}],"bytecode":{"object":"0x608060405234801561001057600080fd5b50604051610f01380380610f018339818101604052810190610032919061011d565b33600260006101000a81548173ffffffffffffffffffffffffffffffffffffffff021916908373ffffffffffffffffffffffffffffffffffffffff16021790555080600360006101000a81548173ffffffffffffffffffffffffffffffffffffffff021916908373ffffffffffffffffffffffffffffffffffffffff1602179055505061014a565b600080fd5b600073ffffffffffffffffffffffffffffffffffffffff82169050919050565b60006100ea826100bf565b9050919050565b6100fa816100df565b811461010557600080fd5b50565b600081519050610117816100f1565b92915050565b600060208284031215610133576101326100ba565b5b600061014184828501610108565b91505092915050565b610da8806101596000396000f3fe6080604052600436106100745760003560e01c80636b69a5921161004e5780636b69a5921461010c578063b60d428814610137578063d7b4750c14610141578063dba6335f1461017e57610083565b80630343fb251461008d5780630d8e6e2c146100ca5780633ccfd60b146100f557610083565b36610083576100816101a9565b005b61008b6101a9565b005b34801561009957600080fd5b506100b460048036038101906100af919061084f565b6102e2565b6040516100c19190610895565b60405180910390f35b3480156100d657600080fd5b506100df61032a565b6040516100ec9190610895565b60405180910390f35b34801561010157600080fd5b5061010a6103c2565b005b34801561011857600080fd5b506101216105fe565b60405161012e9190610895565b60405180910390f35b61013f6101a9565b005b34801561014d57600080fd5b50610168600480360381019061016391906108dc565b61060a565b6040516101759190610918565b60405180910390f35b34801561018a57600080fd5b50610193610652565b6040516101a09190610918565b60405180910390f35b674563918244f400006101e7600360009054906101000a900473ffffffffffffffffffffffffffffffffffffffff163461067890919063ffffffff16565b1015610228576040517f08c379a000000000000000000000000000000000000000000000000000000000815260040161021f90610990565b60405180910390fd5b346000803373ffffffffffffffffffffffffffffffffffffffff1673ffffffffffffffffffffffffffffffffffffffff168152602001908152602001600020600082825461027691906109df565b925050819055506001339080600181540180825580915050600190039060005260206000200160009091909190916101000a81548173ffffffffffffffffffffffffffffffffffffffff021916908373ffffffffffffffffffffffffffffffffffffffff160217905550565b60008060008373ffffffffffffffffffffffffffffffffffffffff1673ffffffffffffffffffffffffffffffffffffffff168152602001908152602001600020549050919050565b6000600360009054906101000a900473ffffffffffffffffffffffffffffffffffffffff1673ffffffffffffffffffffffffffffffffffffffff166354fd4d506040518163ffffffff1660e01b8152600401602060405180830381865afa158015610399573d6000803e3d6000fd5b505050506040513d601f19601f820116820180604052508101906103bd9190610a28565b905090565b600260009054906101000a900473ffffffffffffffffffffffffffffffffffffffff1673ffffffffffffffffffffffffffffffffffffffff163373ffffffffffffffffffffffffffffffffffffffff1614610449576040517f579610db00000000000000000000000000000000000000000000000000000000815260040160405180910390fd5b60005b6001805490508110156104ee5760006001828154811061046f5761046e610a55565b5b9060005260206000200160009054906101000a900473ffffffffffffffffffffffffffffffffffffffff16905060008060008373ffffffffffffffffffffffffffffffffffffffff1673ffffffffffffffffffffffffffffffffffffffff1681526020019081526020016000208190555050808060010191505061044c565b50600067ffffffffffffffff81111561050a57610509610a84565b5b6040519080825280602002602001820160405280156105385781602001602082028036833780820191505090505b506001908051906020019061054e929190610745565b5060003373ffffffffffffffffffffffffffffffffffffffff164760405161057590610ae4565b60006040518083038185875af1925050503d80600081146105b2576040519150601f19603f3d011682016040523d82523d6000602084013e6105b7565b606091505b50509050806105fb576040517f08c379a00000000000000000000000000000000000000000000000000000000081526004016105f290610b45565b60405180910390fd5b50565b674563918244f4000081565b6000600182815481106106205761061f610a55565b5b9060005260206000200160009054906101000a900473ffffffffffffffffffffffffffffffffffffffff169050919050565b600260009054906101000a900473ffffffffffffffffffffffffffffffffffffffff1681565b600080610684836106b4565b90506000670de0b6b3a7640000858361069d9190610b65565b6106a79190610bd6565b9050809250505092915050565b6000808273ffffffffffffffffffffffffffffffffffffffff1663feaf968c6040518163ffffffff1660e01b815260040160a060405180830381865afa158015610702573d6000803e3d6000fd5b505050506040513d601f19601f820116820180604052508101906107269190610c7f565b5050509150506402540be4008161073d9190610cfa565b915050919050565b8280548282559060005260206000209081019282156107be579160200282015b828111156107bd5782518260006101000a81548173ffffffffffffffffffffffffffffffffffffffff021916908373ffffffffffffffffffffffffffffffffffffffff16021790555091602001919060010190610765565b5b5090506107cb91906107cf565b5090565b5b808211156107e85760008160009055506001016107d0565b5090565b600080fd5b600073ffffffffffffffffffffffffffffffffffffffff82169050919050565b600061081c826107f1565b9050919050565b61082c81610811565b811461083757600080fd5b50565b60008135905061084981610823565b92915050565b600060208284031215610865576108646107ec565b5b60006108738482850161083a565b91505092915050565b6000819050919050565b61088f8161087c565b82525050565b60006020820190506108aa6000830184610886565b92915050565b6108b98161087c565b81146108c457600080fd5b50565b6000813590506108d6816108b0565b92915050565b6000602082840312156108f2576108f16107ec565b5b6000610900848285016108c7565b91505092915050565b61091281610811565b82525050565b600060208201905061092d6000830184610909565b92915050565b600082825260208201905092915050565b7f596f75206e65656420746f207370656e64206d6f726520455448210000000000600082015250565b600061097a601b83610933565b915061098582610944565b602082019050919050565b600060208201905081810360008301526109a98161096d565b9050919050565b7f4e487b7100000000000000000000000000000000000000000000000000000000600052601160045260246000fd5b60006109ea8261087c565b91506109f58361087c565b9250828201905080821115610a0d57610a0c6109b0565b5b92915050565b600081519050610a22816108b0565b92915050565b600060208284031215610a3e57610a3d6107ec565b5b6000610a4c84828501610a13565b91505092915050565b7f4e487b7100000000000000000000000000000000000000000000000000000000600052603260045260246000fd5b7f4e487b7100000000000000000000000000000000000000000000000000000000600052604160045260246000fd5b600081905092915050565b50565b6000610ace600083610ab3565b9150610ad982610abe565b600082019050919050565b6000610aef82610ac1565b9150819050919050565b7f43616c6c206661696c6564000000000000000000000000000000000000000000600082015250565b6000610b2f600b83610933565b9150610b3a82610af9565b602082019050919050565b60006020820190508181036000830152610b5e81610b22565b9050919050565b6000610b708261087c565b9150610b7b8361087c565b9250828202610b898161087c565b91508282048414831517610ba057610b9f6109b0565b5b5092915050565b7f4e487b7100000000000000000000000000000000000000000000000000000000600052601260045260246000fd5b6000610be18261087c565b9150610bec8361087c565b925082610bfc57610bfb610ba7565b5b828204905092915050565b600069ffffffffffffffffffff82169050919050565b610c2681610c07565b8114610c3157600080fd5b50565b600081519050610c4381610c1d565b92915050565b6000819050919050565b610c5c81610c49565b8114610c6757600080fd5b50565b600081519050610c7981610c53565b92915050565b600080600080600060a08688031215610c9b57610c9a6107ec565b5b6000610ca988828901610c34565b9550506020610cba88828901610c6a565b9450506040610ccb88828901610a13565b9350506060610cdc88828901610a13565b9250506080610ced88828901610c34565b9150509295509295909350565b6000610d0582610c49565b9150610d1083610c49565b9250828202610d1e81610c49565b91507f80000000000000000000000000000000000000000000000000000000000000008414600084121615610d5657610d556109b0565b5b8282058414831517610d6b57610d6a6109b0565b5b509291505056fea2646970667358221220e89eb151cd0e0fb225e4d34b35e7f387748f82bdddce5af89b1162269442b13564736f6c634300081a0033","linkReferences":{}},"methodIdentifiers":{"MINIMUM_USD()":"6b69a592","fund()":"b60d4288","getAddressToAmountFunded(address)":"0343fb25","getFunder(uint256)":"d7b4750c","getVersion()":"0d8e6e2c","i_owner()":"dba6335f","withdraw()":"3ccfd60b"},"id":27}