{"abi":[{"type":"constructor","inputs":[{"name":"priceFeed","type":"address","internalType":"address"}],"stateMutability":"nonpayable"},{"type":"fallback","stateMutability":"payable"},{"type":"receive","stateMutability":"payable"},{"type":"function","name":"MINIMUM_USD","inputs":[],"outputs":[{"name":"","type":"uint256","internalType":"uint256"}],"stateMutability":"view"},{"type":"function","name":"fund","inputs":[],"outputs":[],"stateMutability":"payable"},{"type":"function","name":"getAddressToAmountFunded","inputs":[{"name":"fundingAddress","type":"address","internalType":"address"}],"outputs":[{"name":"","type":"uint256","internalType":"uint256"}],"stateMutability":"view"},{"type":"function","name":"getFunder","inputs":[{"name":"index","type":"uint256","internalType":"uint256"}],"outputs":[{"name":"","type":"address","internalType":"address"}],"stateMutability":"view"},{"type":"function","name":"getOwner","inputs":[],"outputs":[{"name":"","type":"address","internalType":"address"}],"stateMutability":"view"},{"type":"function","name":"getVersion","inputs":[],"outputs":[{"name":"","type":"uint256","internalType":"uint256"}],"stateMutability":"view"},{"type":"function","name":"withdraw","inputs":[],"outputs":[],"stateMutability":"nonpayable"},{"type":"function","name":"withdrawCheaper","inputs":[],"outputs":[],"stateMutability":"nonpayable"},{"type":"error","name":"FundMe__NotOwner","inputs":[]}],"bytecode":{"object":"0x6080604052348015600f57600080fd5b506040516108c43803806108c4833981016040819052602c91605e565b60028054336001600160a01b031991821617909155600380549091166001600160a01b0392909216919091179055608c565b600060208284031215606f57600080fd5b81516001600160a01b0381168114608557600080fd5b9392505050565b6108298061009b6000396000f3fe60806040526004361061007f5760003560e01c8063893d20e81161004e578063893d20e814610125578063a13fe71f14610157578063b60d42881461008e578063d7b4750c1461016c5761008e565b80630343fb25146100965780630d8e6e2c146100df5780633ccfd60b146100f45780636b69a592146101095761008e565b3661008e5761008c61018c565b005b61008c61018c565b3480156100a257600080fd5b506100cc6100b136600461067f565b6001600160a01b031660009081526020819052604090205490565b6040519081526020015b60405180910390f35b3480156100eb57600080fd5b506100cc610267565b34801561010057600080fd5b5061008c6102da565b34801561011557600080fd5b506100cc674563918244f4000081565b34801561013157600080fd5b506002546001600160a01b03165b6040516001600160a01b0390911681526020016100d6565b34801561016357600080fd5b5061008c6103f9565b34801561017857600080fd5b5061013f6101873660046106a8565b61051a565b600354674563918244f40000906101ad9034906001600160a01b031661054a565b10156102005760405162461bcd60e51b815260206004820152601b60248201527f596f75206e65656420746f207370656e64206d6f72652045544821000000000060448201526064015b60405180910390fd5b336000908152602081905260408120805434929061021f9084906106d7565b90915550506001805480820182556000919091527fb10e2d527612073b26eecdfd717e6a320cf44b4afac2b0732d9fcbe2b7fa0cf60180546001600160a01b03191633179055565b6003546040805163054fd4d560e41b815290516000926001600160a01b0316916354fd4d509160048083019260209291908290030181865afa1580156102b1573d6000803e3d6000fd5b505050506040513d601f19601f820116820180604052508101906102d591906106ea565b905090565b6002546001600160a01b031633146103055760405163579610db60e01b815260040160405180910390fd5b60005b6001548110156103515760006001828154811061032757610327610703565b60009182526020808320909101546001600160a01b03168252819052604081205550600101610308565b50604080516000815260208101918290525161036f91600191610605565b50604051600090339047908381818185875af1925050503d80600081146103b2576040519150601f19603f3d011682016040523d82523d6000602084013e6103b7565b606091505b50509050806103f65760405162461bcd60e51b815260206004820152600b60248201526a10d85b1b0819985a5b195960aa1b60448201526064016101f7565b50565b6002546001600160a01b031633146104245760405163579610db60e01b815260040160405180910390fd5b60015460005b818110156104715760006001828154811061044757610447610703565b60009182526020808320909101546001600160a01b0316825281905260408120555060010161042a565b50604080516000815260208101918290525161048f91600191610605565b50604051600090339047908381818185875af1925050503d80600081146104d2576040519150601f19603f3d011682016040523d82523d6000602084013e6104d7565b606091505b50509050806105165760405162461bcd60e51b815260206004820152600b60248201526a10d85b1b0819985a5b195960aa1b60448201526064016101f7565b5050565b60006001828154811061052f5761052f610703565b6000918252602090912001546001600160a01b031692915050565b60008061055683610582565b90506000670de0b6b3a764000061056d8684610719565b6105779190610730565b925050505b92915050565b600080826001600160a01b031663feaf968c6040518163ffffffff1660e01b815260040160a060405180830381865afa1580156105c3573d6000803e3d6000fd5b505050506040513d601f19601f820116820180604052508101906105e79190610771565b505050915050806402540be4006105fe91906107c3565b9392505050565b82805482825590600052602060002090810192821561065a579160200282015b8281111561065a57825182546001600160a01b0319166001600160a01b03909116178255602090920191600190910190610625565b5061066692915061066a565b5090565b5b80821115610666576000815560010161066b565b60006020828403121561069157600080fd5b81356001600160a01b03811681146105fe57600080fd5b6000602082840312156106ba57600080fd5b5035919050565b634e487b7160e01b600052601160045260246000fd5b8082018082111561057c5761057c6106c1565b6000602082840312156106fc57600080fd5b5051919050565b634e487b7160e01b600052603260045260246000fd5b808202811582820484141761057c5761057c6106c1565b60008261074d57634e487b7160e01b600052601260045260246000fd5b500490565b805169ffffffffffffffffffff8116811461076c57600080fd5b919050565b600080600080600060a0868803121561078957600080fd5b61079286610752565b602087015160408801516060890151929750909550935091506107b760808701610752565b90509295509295909350565b80820260008212600160ff1b841416156107df576107df6106c1565b818105831482151761057c5761057c6106c156fea264697066735822122064e3fd348eec8f53e58c8b148cf4a201fdb005ee06047b5aad0222263d71010b64736f6c634300081a0033","linkReferences":{}},"methodIdentifiers":{"MINIMUM_USD()":"6b69a592","fund()":"b60d4288","getAddressToAmountFunded(address)":"0343fb25","getFunder(uint256)":"d7b4750c","getOwner()":"893d20e8","getVersion()":"0d8e6e2c","withdraw()":"3ccfd60b","withdrawCheaper()":"a13fe71f"},"id":27}